{
  "contractName": "TodoContract",
  "abi": [
    {
      "inputs": [],
      "stateMutability": "nonpayable",
      "type": "constructor"
    },
    {
      "inputs": [],
      "name": "todoCount",
      "outputs": [
        {
          "internalType": "uint256",
          "name": "",
          "type": "uint256"
        }
      ],
      "stateMutability": "view",
      "type": "function",
      "constant": true
    },
    {
      "inputs": [
        {
          "internalType": "uint256",
          "name": "",
          "type": "uint256"
        }
      ],
      "name": "todos",
      "outputs": [
        {
          "internalType": "uint256",
          "name": "id",
          "type": "uint256"
        },
        {
          "internalType": "string",
          "name": "todo",
          "type": "string"
        },
        {
          "internalType": "bool",
          "name": "completed",
          "type": "bool"
        }
      ],
      "stateMutability": "view",
      "type": "function",
      "constant": true
    },
    {
      "inputs": [
        {
          "internalType": "string",
          "name": "_todo",
          "type": "string"
        }
      ],
      "name": "createTodo",
      "outputs": [
        {
          "internalType": "bool",
          "name": "",
          "type": "bool"
        }
      ],
      "stateMutability": "nonpayable",
      "type": "function"
    }
  ],
  "bytecode": "0x60806040526000805534801561001457600080fd5b5061003c6040518060600160405280603181526020016105d26031913961004260201b60201c565b50610187565b60008060008154809291906001019190505550604051806060016040528060005481526020018381526020016000151581525060016000805481526020019081526020016000206000820151816000015560208201518160010190805190602001906100af9291906100dc565b5060408201518160020160006101000a81548160ff02191690831515021790555090505060019050919050565b828054600181600116156101000203166002900490600052602060002090601f0160209004810192826101125760008555610159565b82601f1061012b57805160ff1916838001178555610159565b82800160010185558215610159579182015b8281111561015857825182559160200191906001019061013d565b5b509050610166919061016a565b5090565b5b8082111561018357600081600090555060010161016b565b5090565b61043c806101966000396000f3fe608060405234801561001057600080fd5b50600436106100415760003560e01c8063bc8bc2b414610046578063e34f1221146100fd578063fe0dee17146101ce575b600080fd5b6100726004803603602081101561005c57600080fd5b81019080803590602001909291905050506101ec565b60405180848152602001806020018315158152602001828103825284818151815260200191508051906020019080838360005b838110156100c05780820151818401526020810190506100a5565b50505050905090810190601f1680156100ed5780820380516001836020036101000a031916815260200191505b5094505050505060405180910390f35b6101b66004803603602081101561011357600080fd5b810190808035906020019064010000000081111561013057600080fd5b82018360208201111561014257600080fd5b8035906020019184600183028401116401000000008311171561016457600080fd5b91908080601f016020809104026020016040519081016040528093929190818152602001838380828437600081840152601f19601f8201169050808301925050505050505091929192905050506102bb565b60405180821515815260200191505060405180910390f35b6101d6610355565b6040518082815260200191505060405180910390f35b6001602052806000526040600020600091509050806000015490806001018054600181600116156101000203166002900480601f01602080910402602001604051908101604052809291908181526020018280546001816001161561010002031660029004801561029e5780601f106102735761010080835404028352916020019161029e565b820191906000526020600020905b81548152906001019060200180831161028157829003601f168201915b5050505050908060020160009054906101000a900460ff16905083565b600080600081548092919060010191905055506040518060600160405280600054815260200183815260200160001515815250600160008054815260200190815260200160002060008201518160000155602082015181600101908051906020019061032892919061035b565b5060408201518160020160006101000a81548160ff02191690831515021790555090505060019050919050565b60005481565b828054600181600116156101000203166002900490600052602060002090601f01602090048101928261039157600085556103d8565b82601f106103aa57805160ff19168380011785556103d8565b828001600101855582156103d8579182015b828111156103d75782518255916020019190600101906103bc565b5b5090506103e591906103e9565b5090565b5b808211156104025760008160009055506001016103ea565b509056fea2646970667358221220dc0114fc943dcec64208d68c26c95104ba9ced490b2ec7363ea1b2fc4b808bc264736f6c6343000706003357656c636f6d6520706c656173652074616b65206120717569636b20746f7572206f6620796f757220746f646f20617070",
  "immutableReferences": {},
  "source": "pragma solidity ^0.7.0;\n\ncontract TodoContract {\n    uint public todoCount = 0;\n\n    struct Todo {\n        uint id;\n        string todo;\n        bool completed;\n    }\n\n    mapping(uint => Todo) public todos;\n\n    constructor() {\n        createTodo(\"Welcome please take a quick tour of your todo app\");\n    }\n\n    function createTodo(string memory _todo) public returns(bool) {\n        todoCount ++;\n        todos[todoCount] = Todo(todoCount,_todo, false);\n        return true;\n    }\n}",
  "sourcePath": "/Users/temi/blockchain/todoapp/contract/contracts/TodoContract.sol",
  "compiler": {
    "name": "solc",
    "version": "0.7.6+commit.7338295f.Emscripten.clang"
  },
  "schemaVersion": "3.3.4",
  "updatedAt": "2021-04-05T12:14:10.698Z",
  "networkType": "ethereum",
  "devdoc": {
    "kind": "dev",
    "methods": {},
    "version": 1
  },
  "userdoc": {
    "kind": "user",
    "methods": {},
    "version": 1
  }
}